S010000072616461725F73696D2E73333732
S11300000010002059060000B92B0000B92B000095
S1130010B92B0000B92B0000B92B0000B92B00004C
S1130020B92B0000B92B0000B92B0000B92B00003C
S1130030B92B0000B92B0000B92B0000B92B00002C
S1130040B92B0000B92B0000B92B0000B92B00001C
S1130050B92B0000B92B0000B92B0000B92B00000C
S1130060B92B0000B92B00005D0300003904000027
S1130070B92B0000B92B0000B92B0000B92B0000EC
S1130080B92B0000B92B0000B92B0000B92B0000DC
S1130090B92B0000B92B0000B92B0000B92B0000CC
S11300A0B92B0000B92B0000B92B0000B92B0000BC
S11300B0B92B000051210000B92B0000B92B00001E
S11300C0B92B0000B92B0000000000000000000064
S11300D001F0FF01102A2BDB10F0070F08D010F8F5
S11300E0013B013A8B422DD010F0070F42B3F6D1F9
S11300F0F0B441EA012141EA014122F007047FF012
S113010000070023F0E80256083C85EA010586EA68
S1130110010685FA47F5A3FA87F586FA47F6A5FAA4
S113012087F68EB9EED1F0BC01F0FF0102F00702B0
S113013032B110F8013B013A83EA010313B1F8D15B
S11301400020704701387047002D06BF354603383C
S1130150073815F0010F07D1013015F4807F02BF75
S1130160013015F4C03F0130F0BC0138704700BFC6
S11301700348044B834202D0034B03B11847704732
S11301807810002078100020000000000548064B7D
S11301901B1AD90F01EBA301491002D0034B03B181
S11301A018477047781000207810002000000000E5
S11301B010B5064C237843B9FFF7DAFF044B13B1AB
S11301C00448AFF300800123237010BDF411002014
S11301D0000000007833000008B5054B1BB1054949
S11301E00548AFF30080BDE80840FFF7CFBF00BF6C
S11301F0000000007810002078330000A3F5803A56
S1130200704700BF174B002B08BF134B9D46FFF7E9
S1130210F5FF00218B460F461348144A121A02F0C8
S113022038FD0E4B002B00D098470D4B002B00D00F
S113023098470020002104000D000D48002802D03A
S11302400C48AFF3008002F051F92000290002F0BD
S113025099FC02F019F900BF00000800000000003A
S11302600000000000100020781000201C12002064
S11302700000000000000000054A013810F8013FAA
S113028003B9704711694906FCD55363F6E700BF0B
S1130290000001401FB5114C0D2200210DF1010099
S11302A002F0F7FC0A238DF8023069460023204649
S11302B08DF8003001F08EFB012243F26753E361B5
S11302C06261A3691343A361054B4FF48061C3F8D2
S11302D080111960626004B010BD00BF008001404D
S11302E000E100E000B55F2395B00121CDE90131C3
S11302F0C82302460549009304A80A2302F0D6F84D
S113030004A8FFF7B9FF15B05DF804FB802F0000C7
S113031000B52A2395B00121CDE9013155230246C8
S11303200549009304A80A2302F0C0F804A8FFF7C3
S1130330A3FF15B05DF804FB802F000000B589B061
S113034002460549684602F0B1F86846FFF794FF93
S113035009B05DF804FB00BF962F0000154B012285
S11303605A61A3F560431022C3F80821124A1368A6
S113037001331360114A1278032A1AD8DFE802F015
S1130380020711164FF47A705843FFF7ABBF0C4ABB
S11303904FF47A7058435343B3F1333FF5D8FFF722
S11303A0CDBF4FF47A705843FFF7B2BF0548FFF74B
S11303B063BF704700800140901000201612002097
S11303C0CDCCCCCCA02F000010B51349044602F0CC
S11303D07CFC20B91148BDE81040FFF74DBF10491F
S11303E0204602F072FC08B90E48F4E70E490322D5
S11303F0204602F056FC20B9E3780C4A303B1370D7
S1130400F2E70B49204602F060FC20B9074B187054
S1130410084B1860E8E710BDB32F0000B72F0000A9
S1130420CD2F0000D12F0000D62F0000161200207F
S1130430DA2F0000901000200E4838B5036C836456
S11304405B070ED502F0FAFB0B4C0D28237801D084
S11304500A2807D12BB109480025C554FFF7B4FF7A
S1130460257038BD1E2B9FBF5A1C2270034AD054DE
S1130470F7E700BF00000140F5110020F61100204D
S113048030B52448244D89B0012100F0A9FA23484D
S1130490012100F0A5FA2248012100F0A1FA214827
S11304A0012100F09DFA002108460123042201F0F5
S11304B0C9F9012319460222002001F0C3F90123DE
S11304C004220521002001F0BDF904220023114675
S11304D0052001F0B7F90FCD01AC0FC495E8070072
S11304E084E80700104C01A9204601F05BFB0323BC
S11304F063670023A367E36C43F00403E3640B4BDB
S11305004FF40062C3F880211A6009B0BDE830409E
S1130510FFF7C0BE40410500E02F000000250A009F
S113052000220400000204000000014000E100E099
S113053038B500F0F3FD0E480E4C012100F050FADE
S113054001221146002000F073FD0225012211460C
S1130550C4F88050002000F06BFD0122C4F88450E0
S11305601146002000F064FDC4F88850002038BD16
S113057030053E0000400E40264B13B501225A645C
S113058001F020FA044601A801F0F4F98E2C1CD8DD
S11305902149D1F8B00040F00403C1F8B0301F4B3A
S11305A04FF050121A601A631A66C3F89020C3F809
S11305B0C020C3F8F020C1F8B000174AD36A23F072
S11305C07F0343F02003D36201E08F2CF5D09DF824
S11305D00530012B01BF124AD2F8643143F0040301
S11305E0C2F864310F4B0022C3F8B42A01F082FB35
S11305F000F02CF801F026FB01F068FB01F038FB59
S1130600FFF796FF02F020FB02B0BDE8104000F0B7
S113061011B800BF00000E4000400E4000A0004092
S113062000300E400000C643014802F0CEBA00BFBD
S1130630FC2F000008B50448012100F0D1F9BDE801
S1130640084002F0A7BA00BF00250A0001480121B2
S113065000F0C6B900250A0008B500F07DF8124B79
S113066012498B4212D3124B124900208B4218D3E9
S1130670FFF7C8FD186850F82240586840F8224037
S1130680013298688242F5D30C33EAE70022F8E796
S11306901C6844F8220001325C68A242F8D3083393
S11306A0E4E70022F8E700BF803300008C33000049
S11306B08C3300008C33000000487047005A6202FB
S11306C00D4AD2F8943003F00703032B11D0042B06
S11306D003D0022B0BD1094B00E0094B1868D2F868
S11306E00031C3F304230133B0FBF3F07047054B2F
S11306F0F4E74FF40040F2E700400E400C100020F5
S1130700081000200010002008B5FFF7D9FF054BA2
S1130710D3F80831C3F308230133B0FBF3F0024BE1
S1130720186008BD00400E4004100020014B1868FA
S1130730704700BF0C100020054B1860054BD3F820
S1130740943003F00703022B01D1FFF7DDBF70479C
S11307500C10002000400E400D4B0E4A9A60D3F856
S1130760882042F47002C3F888200B4B5A6D42F47F
S113077000525A651A6C22F003021A645A6F22F06E
S113078001025A671A6E22F080521A66704700BF3F
S113079000ED00E00000000000300E40014B18683E
S11307A0704700BF08100020054A06490346106838
S11307B003448B4294BF13604FF0FF30704700BF77
S11307C01010002000800020052838B504460D468E
S11307D005D80B4B33F81030CB40DB0704D4094861
S11307E040F2014102F0EFF930230C2113FB041312
S11307F003F18843012203F52043AA401A6038BD5F
S11308006030000014300000052838B504460D4659
S113081005D80B4B33F81030CB40DB0704D4094820
S11308204FF4866102F0CFF930230C2113FB04133B
S113083003F18C43012203F52043AA401A6038BD1A
S1130840603000001430000010B50121044609484E
S113085000F0C6F80848012100F0C2F8A378207817
S11308606178B3FA83F35B09042200F0EBFF002004
S113087010BD00BF4041050000250A0038B50478CA
S11308804578052C05D80A4B33F81430EB40DB07C8
S113089004D4084840F24B4102F095F93022544305
S11308A004F18044012304F52044AB40A36138BD26
S11308B0603000001430000070B506784478052ECE
S11308C0054605D80E4B33F81630E340DB0704D455
S11308D00C4840F21B4102F076F930230C2213FB42
S11308E0062303F1047303F5204304EBC304A400BB
S11308F0AB782068C0B213B9B0FA80F0400970BD7B
S113090060300000143000000C4B984205D90C4BA9
S1130910984210D80122012301E00022134609491C
S11309200B640949D1F8003123F0807343EA026370
S1130930C1F8003170470222EDE700BF0048E8012A
S11309400090D0030000C84300400E40044BD3F88D
S11309504421D20703D4D3F840211042FBD170477D
S113096000400E400A4B0B4998424A680BD90A4B87
S113097098420AD902F040724B6823F0407343EA6C
S113098002634B6070470022F6E70122F4E700BFE0
S113099040787D0100000E40005A620238B5074CD1
S11309A041F67133256C2364FFF786FEADB2FFF781
S11309B0D9FF0DB10023236438BD00BF00000E40F1
S11309C038B5064C256C41F671332364ADB2FFF79C
S11309D0C9FF0DB10023236438BD00BF00000E40E1
S11309E038B5C0F30323013B092B06D8DFE803F035
S11309F00C2E0505322924051C18BDE8384017487B
S1130A0041F6B05102F0DFB8154DC0F3043405F1DE
S1130A10424505F5801504EBC5008000016038BD32
S1130A20104DC0F30434F2E70F4DC0F304344FF417
S1130A308030FFF78BFFEAE7C0F304340B4D10203E
S1130A40F7E7C0F304340A4D0120F2E7094DC0F37F
S1130A500434DCE7084DC0F30434D8E76C300000FC
S1130A6000400E4050410E40F0400E40E8400E4021
S1130A70E0400E40C0400E40B0400E4008B5C0F308
S1130A800313013B092B4CD8DFE803F0050B0F19C6
S1130A904B4B1F23333F244BD3F80001C0F30420F6
S1130AA008BD214BD3F81401F8E71F4BD3F80031EC
S1130AB0C3F300630133012098400138F0E71A4B77
S1130AC0D3F80C01C0F30820EAE7174BD3F8080168
S1130AD0F8E7164B984205D1134BD3F8203103F0B5
S1130AE00F03E8E741F65471114802F06CF8002056
S1130AF0D6E7104B984205D10B4BD3F8283103F0BD
S1130B000303D8E741F67871EEE70B4B984205D121
S1130B10054BD3F8300100F00F00C1E741F68771AF
S1130B20E2E741F6AC71DFE700400E4080061600B4
S1130B306C30000090071A00A009140000F00F00A8
S1130B40013808B507284BD8DFE800F00412214A21
S1130B5031354A3D2B4BD3F8940000F007000328AD
S1130B6005D0042843D002280CBF0420052008BD6A
S1130B70244BD3F8800000F007000228F7D00428A3
S1130B8039D0012808BF032018BF0120EFE71D4B0F
S1130B90D3F8843003F00703013B032B03D8DFE8C9
S1130BA003F00426282A0120E1E70320DFE7154BA0
S1130BB0D3F88800DFE7134B1B6F13F0010F0CBF52
S1130BC007200920D3E70F4BD3F85C3103F030033F
S1130BD0202B12D0302B12D0102B08BF0720D3E7C4
S1130BE0094842F2013101F0EEFF0020BFE7022084
S1130BF0BDE70620BBE70A20B9E70420B7E70820D1
S1130C00B5E700BF00400E406C300000284B98420E
S1130C1010B504460DD1FFF791FF264BD3F884405D
S1130C2004F00704042C3BD8DFE804F03F24283008
S1130C302C00214B984205D1FFF780FF1D4BD3F8C0
S1130C408840EDE71D4B984205D1FFF777FF194B1C
S1130C50D3F88040E4E741F61311194801F0B3FFDB
S1130C602046FFF76BFF41F642110446144801F099
S1130C70AAFFD7E7BDE8104001F09FBFBDE81040D0
S1130C80FFF78CBDBDE8104001F09ABFFFF718FDD7
S1130C90084BD3F80031C3F300630133D84010BDCF
S1130CA0074841F6941101F08EFF0020F7E700BFDA
S1130CB00300200000400E400500240002001E0036
S1130CC06C30000038B500F47813B3F5A01F054666
S1130CD056D020D8B3F5202F6ED00AD8B3F5003FF4
S1130CE043D0B3F5802F35D0002B65D04FF4F751A6
S1130CF068E0B3F5602F58D0B3F5801F00F0808012
S1130D00B3F5402FF2D1FFF7DBFC4C4BD3F8143191
S1130D10C3F3042325E0B3F5001F3BD00FD8B3F58C
S1130D20D01F39D0B3F5F01F25D0B3F5B01FDDD1F6
S1130D304348FFF76BFF414BD3F8203126E0B3F56E
S1130D40481F44D0B3F5781F6ED0B3F5101FCDD132
S1130D503C4811E0FFF7B4FC384BD3F80C31C3F333
S1130D6008230133B0FBF3F038BDFFF7A9FC334B84
S1130D70D3F80831F3E73248BDE83840FFF746BFFF
S1130D803048FFF743FF2D4BD3F8303103F00F0306
S1130D90D840E9E72C48EFE72B48FFF737FF274B0C
S1130DA0D3F8283103F00303F2E72848FFF7C6FE1F
S1130DB0072825D0092803D1BDE83840FFF780BCB7
S1130DC041F2D661224801F0FEFE0020CCE7214822
S1130DD0FFF7B4FE0138072823D801A353F820F005
S1130DE0CB0D0000230E0000230E0000070E0000B0
S1130DF0230E0000230E0000010E00000F0E000061
S1130E00154B1868B0E7BDE83840FFF78FBCFFF713
S1130E1057FC0A4BD3F80031C3F3042303FB00004F
S1130E20A2E741F20D71CDE7FFF74AFC04462846DC
S1130E3001F0E0FEB4FBF0F096E700BF00400E4086
S1130E4002001E00050024000300200006000E001E
S1130E506C300000B800320014100020014B1880E0
S1130E60704700BF6A100020014B1880704700BF14
S1130E706810002038B50C4604287BD8DFE800F061
S1130E806403451B3000B1F5007F04D33D4842F6AE
S1130E90B44101F098FE3C4AC4F30804D2F868381F
S1130EA0002BFBD1394A136A23F4FF7323F00103A7
S1130EB02343136238BD7F2904D9324842F6C14125
S1130EC001F081FE304A04F07F04D2F86038002B30
S1130ED0FBD12E4A136923F07F031C431461E9E715
S1130EE07F2904D9274842F6DC4101F06CFE264AEA
S1130EF004F07F04D2F86438002BFBD1234A9369B1
S1130F0023F07F031C439461D4E7204DD5F890303F
S1130F105B0704D51B4842F6EC4101F054FE6B6AB2
S1130F2023F0300343F010036B62296B184BC4F3B6
S1130F30C31203320F2A03EA010328BF0F222343FB
S1130F4043EA02732B63B5E77F2904D90D4842F6BF
S1130F50075101F038FE4F2C0B4A28BF4F24D2F81A
S1130F607438002BFBD1094A936B23F07F0323438E
S1130F7093639FE7BDE83840024842F6155101F0FB
S1130F8022BE00BF6C3000000020C84300400E4069
S1130F9000F8FF0F022838B50C4604D0134842F677
S1130FA02D5101F010FE124D6B6A13F0300F1AD060
S1130FB0202C15D0302C16D0ACB10C4842F6485138
S1130FC001F001FE0B4BD5F8902033EA0202FAD16E
S1130FD05B024ABFD5F8A0000120C0F3802038BDD1
S1130FE04FF40003EFE74FF44003ECE76C300000EC
S1130FF000400E40FF03E107022808B50CD129B1D7
S1131000094B4FF48060C3F8A80059664AB1BDE8A3
S113101008400220FFF7BEBF044842F67E5101F0AB
S1131020D2FD012008BD00BF00400E406C3000001E
S11310300428F8B51ED8324B13F800C0314B1D5CA0
S1131040314B33F81070314B33F81040304BC1B989
S113105001211C66A940D3F890000842FBD1002A64
S113106048D001232A4903FA0CF3D1F890201A42FC
S1131070FBD13FE0BDE8F840264842F6F93101F0E3
S1131080A2BD022837D15C6A14F0300F33D15C6AF8
S1131090E40705D55E6A26F0300646F010065E6267
S11310A01D4C1B4B25441F66AD002B68002BFCD048
S11310B002B36444A4002368002BFCD0022819D195
S11310C0C1B1134D696A11F0010116D0012220212A
S11310D0FFF792FFD5F89C60012200210220FFF760
S11310E0A7FFC6F30A010220FFF7C4FE2F66236898
S11310F0002BFCD0F8BD0021D2E7FFF74BFFE9E756
S1131100D1300000CC300000C2300000B830000004
S113111000400E406C3000008004F21008B50C480A
S1131120FFF7F2FB012211460220FFF781FFFFF7D0
S113113035FC084B02225A67FFF7C2FAFFF7E4FBBB
S1131140FFF7E2FABDE808400021FFF739BC00BF11
S11311500148E80100400E4010B504461120FFF795
S1131160EDFC042804D1244842F6732101F02BFD40
S1131170012200210220FFF75BFF237C012B04D115
S11311801D4842F6B02101F01EFD1C4A217C536A21
S113119023F00103022908BF43F001035362184BF3
S11311A02178C3F8A014936AE17A23F007030B4370
S11311B09362A188637A43EAC123D362136BA07A52
S11311C0217A03F07F630343E08843EAC02343EAC0
S11311D0C11303310F2928BF0F2143EA017313639D
S11311E0A37B617B1B0143EA0133E17B0B43217B3E
S11311F043EA0143536310BD6C30000000400E40CD
S11312000000C84370B505461120FFF797FC02287B
S113121004D10F4842F62B3101F0D5FC0D4E0E4C93
S1131220B26B6B7814402A78144344EAC324AB7835
S113123044EA0364EB7844EA0324B36BA34205D085
S1131240002101220846FFF7F3FEB46370BD00BF1E
S11312506C30000000400E4080E4FFF81848194B41
S1131260C26C1B88C2F303222833013202EB8201D1
S113127003EB5303B3FBF1F3C16C013B072B28BF12
S1131280072321F0EE6141EA036343F48013C3644E
S11312900D4BB3F90030002B10DB2833510801EB60
S11312A0420203EB5303B3FBF2F3026D072B28BF97
S11312B0072322F0700242EA03130365704700BF5C
S11312C000300E40F0110020EC1100200A4903798F
S11312D08A6922F03F021343027843EA8203427888
S11312E043EA4203827843EAC203C278012A08BF70
S11312F043F001038B61704700300E401A4B4AF6ED
S1131300E85210B5596B5A639A6FD407FCD41B6C1E
S113131013F0030306D0154A01249842C2F8B44AD4
S11313200AD110BD18B9114BC3F8B40AF9E7012862
S113133002BF0F4B02221A700B4B9A6FD207FCD4D8
S11313401A6C22F0030202431A649A6F12F001022B
S1131350FBD10038054C18BF01200129C4F8B40A98
S113136008BF5A63DDE700BF00300E400000C643EB
S113137017120020A0F5E163B3F5966F2DE9F04153
S113138007D940F64841604801F01DFC0020BDE843
S1131390F0815E4C5E4BD4F81872B0F5E16F1CD04E
S11313A0DD6CC5F301753C0E2E02C7F307474FF4FD
S11313B0966C4FF4E16E01233343B3F5007F534E33
S11313C049D017D8B3F5807F42D040F20118434585
S11313D035D0CBB9D6F81C3218E0DD6CC5F30175F5
S11313E0C7F307242E02FFB24FF4167C4FF4966E17
S11313F00023E1E7B3F5407F30D040F201384345A4
S113140023D0D6F8283201E0D6F82432C3F30726D5
S1131410DBB2A4EB0708A0EB0E0E0EFB08F8B8FB3A
S1131420FCF84744A74207D8F41A0EFB04F4B4FBB3
S1131430FCF41C44B44214D940F69641A3E7D6F810
S113144024321E0EC3F30743E3E7D6F82832F8E745
S1131450D6F81C32F5E7D6F82032D7E7D6F8203292
S1131460EFE772B12A4AD36DB0F5E16623F4FE4387
S113147018BF012623F0020343EA460343EA072385
S1131480D36509B9012082E7204BD3F80021D2B2F9
S1131490032A07D8B0F5E16FD3F82C320AD0C3F38E
S11314A0072308E0022DD3F8303210D0032D11D0D9
S11314B0012DF4D0DBB21B0313F4702F0CD040F6D3
S11314C04221114801F07FFB40F6A5415BE7C3F3DD
S11314D00743F0E71B0EEEE70D49CA6E22F4704293
S11314E01343CB664B6E23F4FF7323F00103B0F573
S11314F0E16F18BF43F00103E72C28BFE72443EA58
S113150044034B66BEE700BFD63000000081E00F05
S113151000300E401B4A08B5136FD16C11F0010F57
S113152003F0060315D0A3B1132829D914381328BE
S11315308CBF102308231348013BC26C190322F407
S11315407F4241EA03231343C364BDE80840FFF725
S113155085BED16C01F00101194304D109280FD9CA
S11315600A380928E4E7D26CD20702D50BB9272838
S1131570DEE7054840F6EB4101F025FB0023DAE7FE
S11315800423D8E700300E40D63000000C4BD3F8CB
S1131590803910B5044633B9012804D9094840F606
S11315A0095101F010FB084A136F23F0070323438A
S11315B01367064BBDE810401888FFF7ABBF00BFA8
S11315C00000C643D630000000300E40EE1100206B
S11315D06F4B37B502229A639B6B03F00F03934260
S11315E0044608D040F6D7216A4801F0ECFA0025F9
S11315F0284603B030BD684BD3F81C32013300F0E9
S1131600A180664BD96B9A6B1160596C1A6C11608E
S1131610D96C9A6C1160596D1A6D1160D96D9A6DFF
S113162011605A6E1B6E1A602389C82B04D959485D
S113163040F6E12101F0C7FAA28823899A4204D92D
S1131640544840F6E22101F0BEFAB4F90C30C82B3C
S113165004DD504840F6E32101F0B5FA6378012B2C
S113166007D1A388C82B04D94A4840F6E72101F0E2
S1131670AAFAE28842F210739A4204D9454840F625
S1131680F42101F0A0FAE2884A2A61D9B2F5FA7F7E
S113169060D340F6C3139A428CBF4FF040524FF0D0
S11316A000523B4DB4F90C10EB6C23F0405323F083
S11316B001030029A8BF43F001031343EB64384B33
S11316C0A2881A80EB6E43F08073EB66354BD3F837
S11316D0800900B10420FFF759FF2B6E23F0C043AB
S11316E02B66EB6C43F0060301A8EB6400F042F9AF
S11316F09DF80500012811D19DF80430022B0DD866
S113170029490B7853B96B6C284A43F001036B6485
S11317102B6E1A40264B13432B660870254B2189E8
S11317201980254BB4F90C20A0881A80FFF7F2FE2B
S1131730A37B93B1012B1DD0164840F6F31101F0A1
S113174042FA0DE013484FF4146101F03CFA6BE7E0
S11317500022A6E74FF08052A3E70D4B174A9A6583
S1131760012260881146FFF705FE054628B940F6B8
S11317702B3139E7064B124AF1E7A37A094A003BB9
S113178018BF0123C2F894376078FFF7B7FD2FE73D
S113179000300E40D63000000081E00F0080E00FE2
S11317A0EE1100200000C64317120020000F0EF0B7
S11317B0B4C0400BF0110020EC11002077402057FA
S11317C0372110B7052838B504460D4605D80B4B0C
S11317D033F81030CB40DB0704D409484FF486615A
S11317E001F0F1F930230C2113FB041303F18C43B2
S11317F0012203F52043AA401A6038BD6E3100006F
S113180014300000052838B504460D4605D80B4BA6
S113181033F81030CB40DB0704D4094840F20141CF
S113182001F0D1F930230C2113FB041303F1884395
S1131830012203F52043AA401A6038BD6E3100002E
S1131840143000000528F8B504460D4616461F4618
S113185005D81C4B33F81030CB40DB0704D41A48AE
S11318604FF4B07101F0AFF926B129462046CFB14B
S1131870FFF7A8FF04EB4403072D4FEA03134FF0CF
S11318800F0112D8A80006FA00F281400F4818444C
S113189001F0C5F9AEB92946204677B1BDE8F84054
S11318A0FFF790BFFFF7AEFFE4E7A5F10800800063
S11318B006FA00F281400648E9E7BDE8F840FFF780
S11318C0A1BFF8BD6E3100002131000004A000402A
S11318D008A00040022838B504460D4603D9114833
S11318E04C2101F070F96B791F2B03D90D484F215E
S11318F001F069F9AB786A789B0143EA82032A789C
S11319001343EA7843EA02132A7943EAC2236A7941
S113191043EA0233AA79043443EA42432401024AE3
S1131920135138BD7A31000000200440014B186087
S1131930704700BF00008442437882789B0043EAEA
S1131940021302781343C27843EA4213027943EA4A
S11319500223427943EA0233827943EAC233C279E9
S113196043EA0243027A43EA4243014A136070475E
S11319700020044010B5044618B91048572101F05E
S113198022F90F4AD2F8E430D2F8E0109B0003F0B9
S11319903C03C1F381110B43A370D2F8E03003F090
S11319A03F036370D2F8E830D2F8EC2003F0F00380
S11319B0C2F303121343237010BD00BFC6310000ED
S11319C000FF0FE0024BD3F8FC00000E704700BF8D
S11319D00081E00F38B51E4B984204460D4607D0EF
S11319E003F58063984203D01A48B42101F0EBF860
S11319F02A780AB90223636000236362EB78A9782A
S1131A001B0443EA0163697A0B43E97943EA8123BE
S1131A10297A43EA0123697843EA8113A97A43EADC
S1131A20C113E97A43EA4113297B43EA0113697B31
S1131A3043EAC103297943EA4133697943EA0173EB
S1131A40A97943EA417323600AB10123636038BD75
S1131A500080014014320000F8B507460C461D46CC
S1131A6016464AB9324840F2551101F0ACF824B197
S1131A70402D08D1062327E019B92E48FFF722F993
S1131A800446402D42D0402D09D87DB1202D17D0D9
S1131A90BDE8F84026484FF4CE7101F094B8602DAB
S1131AA0F6D1B6EB940F3CD804230DE0B6EB141F2B
S1131AB004D91F4840F2871101F085F8102303E090
S1131AC0B6EBD40F1CD808235E43730803EB44130E
S1131AD0B3FBF6F3184E203BB6EBC30F4FEAC30437
S1131AE004D2134840F2B31101F06DF83B6823F0BF
S1131AF060033B603B6834401D433D607C61F8BD3E
S1131B000B484FF4C67101F05EF8DCE70623B4FB22
S1131B10F3F3B342AED2064840F2911101F053F808
S1131B20A8E703484FF4CB7101F04DF8BCE700BFC0
S1131B306132000040410500F8FF7F00164B9842D7
S1131B4010B5044608D003F58063984204D01348C6
S1131B5040F25E4101F037F840F6AA63E36041F2D7
S1131B6005020023236062600D4AA3606361E3649D
S1131B70A264094A236694426367A367E36705D0B6
S1131B8002F58062944203D0A36510BD2365FBE790
S1131B902365A365E365F8E70000014061320000B6
S1131BA0F9FF010038B5254B984204460D4608D08C
S1131BB003F58063984204D0214840F2153101F0C6
S1131BC002F82046FFF7BAFFAB7C1BB1236843F051
S1131BD080432360EB7C1BB12B7D43F08003A36522
S1131BE02A8A6B7B1343EA89134363602B7BD5E911
S1131BF001122046FFF730FF6B7D1BB1236843F4CD
S1131C0080332360AB7D1BB1236843F4004323601E
S1131C10EB7D2A7E1B07120502F4E00203F0E04389
S1131C2013432366636F23F030036367626F6B7E35
S1131C30134363672B78E36038BD00BF00000140A5
S1131C40613200007FB5094B6A4603F11006154660
S1131C5018685968144603C40833B3422246F7D1BE
S1131C602846FFF7B5FC002004B070BDAE3200007A
S1131C7070B5134B86B001AA03F110061546186817
S1131C805968144603C40833B3422246F7D11B886B
S1131C9023800C4B0C481B884FF6FF72934208BFFD
S1131CA04FF4A173ADF80A30FEF746FD2846FFF75E
S1131CB053FA3220FFF7D8F8002006B070BD00BFF9
S1131CC0BE3200000001E00F005A620207B5084B63
S1131CD018680190202301A88DF80430FFF792FAC8
S1131CE03220FFF7BBF8002003B05DF804FB00BF0F
S1131CF0D032000010B50C480C4C6FF00403A02146
S1131D0013F0800F03F1010207D12344222A83F840
S1131D1000131346F4D1002010BD03F00F03043B5D
S1131D20034419761346EBE700ED00E000E100E020
S1131D3030B50E4C416123688BB9206083600DE09F
S1131D40891A9A6841611D466AB113465A698A42E2
S1131D50F6D935B1A860521A83605A6130BD0025A6
S1131D60F4E72060F7E798608260F7E79C100020B2
S1131D7038B500F08BF9094C094B1A682368002523
S1131D80C31A2AB123B15169994203D3C91A5161C3
S1131D90206038BD55615B1A9268F2E79810002004
S1131DA09C10002038B5134D2B685B6993B1124A1F
S1131DB0146802201C4400F09DF9204600F06CF9E0
S1131DC00E492A6800230B70D088800709D50123A7
S1131DD00B7038BD022000F08DF9022000F0B0F93C
S1131DE0EEE79268002AF4D050690344012BEBD942
S1131DF0EFE700BF9C10002098100020191200206B
S1131E000C490B6800227BB183420AD183687AB102
S1131E10936083681BB15A6941690A445A6100207E
S1131E2070471A469B68EEE70028EFD002207047FF
S1131E300B60EEE79C10002070B5154E00F0E6FE36
S1131E4034780546FCB9134B1C60134B1C60134BD0
S1131E501C8000F0D5F8012000F04CF900F090F956
S1131E600F4B0246186020B9284600F0D5FE232007
S1131E7070BD23460B4840F2E73100F08DF90A4B60
S1131E80186001233370284600F0C6FE0020EFE7F7
S1131E901A1200209C10002098100020F21100203B
S1131EA0A010002018FCFFFF94100020C2072DE9A9
S1131EB0F84304460BD54E4A138801339BB2138072
S1131EC0FFF756FF4B4B1B680BB1FFF76BFFA307E4
S1131ED040F18B8000F09AFE0546FFF749FF4FF072
S1131EE00008444F46463C680CB163698BB1424BD1
S1131EF00022012E1A7003D118F0020F18BF1E70B1
S1131F00002C6ED0FFF74EFF2846BDE8F84300F0E2
S1131F1083BE23465A693AB91A792179914288BF16
S1131F201C469B68002BF5D1284600F075FE2569F8
S1131F30DDB100F0ABF8A269A0EB02084FEAE87348
S1131F40A84573F1000311DB23691344A361E3681B
S1131F50B4F80680013613B121682046984700F092
S1131F6055FE0546FFF704FFBDE7A84600F04EFE08
S1131F7081462046FFF744FF484600F04DFE2369A2
S1131F80002BE4D0B5EB08054FEAE87363EB430399
S1131F90012D73F1000304DA184840F22A5100F0CD
S1131FA012FEA38B33B1E28B13449BB2B3F57A7F59
S1131FB00FD2E38300F02AFE294680462046FFF72D
S1131FC0B7FEA36922691344A361404600F024FECE
S1131FD0BDE7A3F57A73E383A369013B013DA361E4
S1131FE0E8E7022000F094F88EE7BDE8F88300BF2C
S1131FF0F21100209C10002018120020D43200009E
S113200010B51E4B86B01868596803AA03C2197A22
S1132010D3F8090011700024B3F80D200190DB7B84
S11320201748ADF8082001218DF80A30FEF7D8FCD6
S11320308DF80C4000F013FE8DF8100003A8FFF794
S11320407BFC01A901208DF80440FFF743FC0D4AF5
S1132050536A23F4FF6323F00703536240F2FF73D0
S1132060136201209460FFF761FC074B4FF00052AC
S1132070C3F880211A6006B010BD00BF33330000DE
S1132080A00914000020044000E100E0014B98681E
S1132090704700BF0020044010B5044600F0AFFDB7
S11320A0124A9368516D9269520704D4CA1A032ADA
S11320B001D88B420DD1E21A022A98BFDC1C0B4BCB
S11320C0B4F1FF3F38BF013C5C655A6A42F0040238
S11320D05A6200F098FD064A137833B103490B6D38
S11320E043F002030B650023137010BD002004406D
S11320F06F1000208207054A00F00103516A48BFAF
S113210043F004030B435362704700BF00200440B4
S1132110820700F0010309D5074A0121117007491C
S11321200A6D22F0030243F004030A6503494A6A74
S113213022EA03034B6270476F1000200020044022
S1132140830742BF014B0422DA6170470020044038
S113215010B500F05BFD094A93690446590703F082
S1132160010003F0070348BF40F002001362FFF7C9
S11321709DFE2046BDE8104000F04EBD0020044006
S113218008B50448FEF79EFD034600F068FD23FAF7
S113219000F008BDA009140053B94AB9002908BFCA
S11321A000281CBF4FF0FF314FF0FF3000F06AB938
S11321B0ADF1080C6DE904CE00F006F8DDF804E09A
S11321C0DDE9022304B070472DE9F047089D0C4671
S11321D0002B4ED194468C458646B2FA82F262D9DF
S11321E04AB1C2F12003914020FA03F30CFA02FC35
S11321F0194300FA02FE4FEA1C471FFA8CF6B1FBA2
S1132200F7F44FEA1E4307FB141143EA014304FBAE
S113221006F199420AD91CEB030304F1FF3080F064
S11322201381994240F21081023C6344591A1FFA07
S11322308EF3B1FBF7F007FB101143EA014300FBF7
S113224006F69E420AD91CEB030300F1FF3180F02D
S1132250FD809E4240F2FA80634402389B1B40EAB0
S1132260044000211DB1D3400022C5E90032BDE87D
S1132270F0878B4205D90DB1C5E90001002108465C
S1132280F5E7B3FA83F1002946D1A34202D3904281
S1132290C0F0F180861A64EB03030120002DE6D020
S11322A0C5E90063E3E7002A40F09180A1EB0C0448
S11322B04FEA1C481FFA8CF70121B4FBF8F64FEAE9
S11322C01E4308FB164443EA044307FB06F0984206
S11322D008D91CEB030306F1FF3402D2984200F242
S11322E0CE8026461C1A1FFA8EF3B4FBF8F008FBC6
S11322F0104443EA044300FB07F79F4208D91CEB50
S1132300030300F1FF3402D29F4200F2B180204661
S1132310DB1B40EA0640A5E7C1F120068B4022FA08
S113232006F71F4320FA06FC04FA01F343EA0C0300
S1132330F44000FA01F8380C4FEA1349B4FBF0FEFC
S11323401FFA87FC00FB1E4449EA04440EFB0CF907
S1132350A14502FA01F20AD93C190EF1FF3A80F0C4
S11323608580A14540F28280AEF1020E3C44A4EB8C
S113237009041FFA83F9B4FBF0F300FB134449EAA0
S1132380044403FB0CFCA44507D93C1903F1FF30BA
S113239068D2A44566D9023B3C4443EA0E40A0FB04
S11323A00293A4EB0C049C42CE469C4652D34FD0DD
S11323B055B1B8EB0E0364EB0C0404FA06F6CB40FB
S11323C0CC401E43C5E900640021BDE8F087C2F19A
S11323D0200320FA03F10CFA02FC24FA03F39440DC
S11323E00C434FEA1C4800FA02FE1FFA8CF7B3FBB9
S11323F0F8F008FB1031230C43EA014300FB07F11A
S1132400994208D91CEB030300F1FF362CD2994200
S11324102AD9023863445B1AA4B2B3FBF8F108FB6F
S1132420113344EA034401FB07F3A34208D91CEB2C
S1132430040401F1FF3613D2A34211D902396444D2
S1132440E41A41EA004138E70446EFE6084605E7A6
S1132450C845ADD2B9EB020E63EB070C0138A7E710
S11324603146EDE7034698E73046D4E7D6467EE7A3
S1132470634402384CE70646234608460EE7023E0C
S113248063442FE7704700BF08B5064B044613B1F9
S11324900021AFF30080044B1B6803B1984720462A
S11324A000F092FB00000000DC1100200EB400B527
S11324B09CB01DAB029006906FF000410948079153
S11324C00491094953F8042B05910068019302A96A
S11324D000F020F9029B00221A701CB05DF804EB96
S11324E003B07047181000200802FFFF70B50D4DAF
S11324F00D4C641BA4100026A64209D10B4D0C4CB4
S113250000F01EFD641BA4100026A64205D170BD78
S113251055F8043B98470136EEE755F8043B9847D5
S11325200136F2E7701000207010002070100020B7
S11325307410002038B50546002941D051F8043CF8
S11325400C1F002BB8BFE41800F0D8F81D4A13681C
S113255033B9636014602846BDE8384000F0D4B84D
S1132560A34208D9206821188B4201BF19685B680F
S113257009182160EDE71A465B680BB1A342FAD94A
S113258011685018A0420BD12068014450188342AE
S11325901160E0D118685B68536008441060DAE7A2
S11325A002D90C232B60D6E7206821188B4204BF84
S11325B019685B68636004BF091821605460CAE746
S11325C038BD00BFE811002070B50F4E0C463168CD
S11325D0054611B900F0C6FA30602146284600F0DD
S11325E0C1FA431C03D14FF0FF34204670BDC41C14
S11325F024F00304A042F8D0211A284600F0B2FACD
S11326000130F2D1EFE700BFE41100202DE9F041E1
S1132610CD1C25F0030508350C2D38BF0C25002DE5
S1132620064601DBA94204D90C2333600020BDE82F
S1132630F081314F00F062F83B681C4644BB2946E8
S11326403046FFF7C1FF431C044650D13C68214685
S1132650002941D1002C44D02368304604EB030800
S113266000F080FA80453CD121686D1A2946304635
S1132670FFF7AAFF013034D023682B4423603B6862
S1132680002B36D05A68A24229D100225A600EE0AB
S11326902268521B1DD40B2A16D96119A342256046
S11326A018BF5960636808BF396062514B60304697
S11326B000F02AF804F10B00231D20F00700C21AD1
S11326C0B5D01B1AA350B2E7A3426268DED13A60C8
S11326D0EDE723466468B1E70C464968B8E713465A
S11326E0CEE70C233360304600F00EF89EE7056019
S11326F0DDE75B60FFDE00BFE8110020014800F069
S1132700E2BA00BF1B120020014800F0DDBA00BF8E
S11327101B1200202DE9F04F98468B891B069DB0B3
S113272007460D46144610D50B6973B94021FFF7CF
S11327306DFF2860286130B90C233B604FF0FF30F7
S11327401DB0BDE8F08F40236B6100230993202363
S11327508DF82930CDF80C803023DFF89C818DF87A
S11327602A304FF0010923469A4613F8012B0AB187
S1132770252AF9D1BAEB040B0BD05B462246294635
S1132780384600F0ACFA013000F0A780099A5A44A8
S113279009929AF80030002B00F09F8000234FF03C
S11327A0FF32CDE905230AF1010A049307938DF85A
S11327B053301A935446052214F8011B4E48FDF772
S11327C087FC049AD8B9D00644BF20238DF853302F
S11327D0110744BF2B238DF853309AF800302A2B6D
S11327E015D0079A544600204FF00A0C214611F8E0
S11327F0013B303B092B4BD9B0B1079214E0A0EB5D
S1132800080309FA03F313430493A246D2E7039B94
S1132810191D1B680391002BBBBF5B4242F00202EF
S113282007930793B8BF049223782E2B0AD16378B9
S11328302A2B32D1039B1A1D1B68039243EAE373CC
S113284002340593DFF8C0A0217803225046FDF737
S11328503FFC38B1049BA0EB0A00402282401343A2
S11328600134049314F8011B24488DF8281006221F
S1132870FDF72EFC002836D0214B1BBB039B0733EE
S113288023F0070308330393099B334409936AE74E
S11328900CFB02320C460120A8E700230134059307
S11328A019464FF00A0C204610F8012B303A092A39
S11328B003D9002BC6D00591C4E70CFB01210446C3
S11328C00123F0E703AB00932A460E4B04A93846D4
S11328D0AFF30080421C0646D6D1AB895B063FF5B8
S11328E02DAF09982CE703AB00932A46054B04A9A6
S11328F0384600F00BF8EDE7433300004D33000099
S113290000000000DF2C0000493300002DE9FF47E0
S11329100F7E0C9E782F914680460C469A4601F114
S1132920430207D8622F0AD8002F00F0DD80582F09
S113293000F0C38004F1420684F842703AE0A7F143
S11329406303152BF6D801A151F823F0A529000043
S1132950B929000035290000352900003529000077
S113296035290000B9290000352900003529000067
S11329703529000035290000CF2A0000472A00002D
S1132980872A00003529000035290000F12A0000BB
S113299035290000472A00003529000035290000A8
S11329A08F2A000033681A1D1B68326004F1420646
S11329B084F842300123A8E031682368081D3060A0
S11329C01E0601D50D6803E05D06FBD5B1F9005084
S11329D06168002D78DA2D20002984F84300A16075
S11329E02DDA5E486D420A231646B5FBF3F103FB6C
S11329F01157C75D06F8017D2F46BB420D46F4D939
S1132A00082B0BD12368DF0708D523696168994235
S1132A10DEBF302306F8013C06F1FF36921B22612B
S1132A20CDF800A04B4603AA2146404600F0B2F977
S1132A3001306FD14FF0FF3004B0BDE8F08723F0D0
S1132A4004032360CDE721683368080653F8045B68
S1132A5002D4490648BFADB26F2F4048336014BF5B
S1132A600A230823002184F843106668A660002E18
S1132A70BADB216821F004012160002DB4D1002EBD
S1132A80B2D11646BCE7236843F0200323603448E0
S1132A90782784F84570236831681F0651F8045B71
S1132AA002D45F0648BFADB23160D90744BF43F0DA
S1132AB0200323601DB11023D4E72848E9E72368E5
S1132AC023F020032360F6E724480A23CDE7336884
S1132AD025686169181D30602E061B6801D51960D0
S1132AE002E06806FBD5198000232361164697E7A8
S1132AF033681A1D32601E68626800213046FDF793
S1132B00E7FA08B1801B606063682361002384F8DE
S1132B10433085E72369324649464046D047013071
S1132B2088D023689B0714D4E068039B9842B8BFFD
S1132B30184681E70123324649464046D0470130D2
S1132B403FF478AF0135E36803995B1AAB42F1DCDB
S1132B50EAE7002504F11906F5E700BF5433000045
S1132B606533000038B5064D0023044608462B6043
S1132B70FDF71AFE431C02D12B6803B1236038BD54
S1132B80E011002008B500F06CF8FDF779FC00F0C6
S1132B9075F8FCE77047FDF747BD08B500F00AF883
S1132BA0BDE80840FFF748B9704770477047704761
S1132BB0704770470F207047FEE74FF4004070479E
S1132BC04FF47A707047FEE7FEE7D0E90003184738
S1132BD00346007859789B780BB9FDF7F5BDFDF7EE
S1132BE013BE0346007859789B780BB9FDF70CBEE9
S1132BF0FDF7EABD08B5FDF741FF013008BDEFF36D
S1132C00108072B6704700B962B67047EFF3118056
S1132C10602383F31188704780F31188704770B57F
S1132C2005460E461446FFF7EAFF2B685C40344025
S1132C305C402C60BDE87040FFF7E5BF03691B06EC
S1132C40FCD5C069C0B2704713B50024684600942F
S1132C508DF80440FEF73AFB204602B010BD002078
S1132C60704708B5FDF788FCFFF795FFFFF795FF60
S1132C70FFF79AFFBDE80840FFF797BF08B5FFF7D5
S1132C8095FFFFF794FFFFF793FFBDE80840FFF7B8
S1132C9090BF02440346934200D1704703F8011BDE
S1132CA0F9E710B56AB10139841810F8012B11F84D
S1132CB0013F9A4203D1A04201D0002AF5D1D01A93
S1132CC010BD1046FCE77047704710F8012B11F84F
S1132CD0013B012A28BF9A42F7D0D01A70472DE948
S1132CE0F0478E681F46BE420B6882460C469046EB
S1132CF02DD8B1F90C2012F4906F26D065690969BA
S1132D0005EB4505A3EB010905EBD5757B1C4B448D
S1132D106D109D4238BF1D46530527D52946FFF740
S1132D2075FC064660B321694A4600F0BAF8A389E7
S1132D3023F4906343F08003A381266165614E44CC
S1132D40A5EB09052660A5603E46BE4200D93E4675
S1132D5020683246414600F08AF8A3689B1BA360B2
S1132D602368334423600020BDE8F0872A4600F03E
S1132D70A6F806460028E0D121695046FFF7DAFBA1
S1132D800C23CAF80030A38943F04003A3814FF019
S1132D90FF30E9E72DE9F047164698468A680B6943
S1132DA0DDF820909342B8BF1346336091F8432076
S1132DB007460C460AB1013333602368990642BFC3
S1132DC0336802333360256815F0060506D104F133
S1132DD0190AE36832689B1AAB4226DC94F8433044
S1132DE02268003B18BF012392062BD404F143024E
S1132DF041463846C84701301ED02368226903F093
S1132E000603042B02BFE5683368ED1AA3680CBF00
S1132E1025EAE57500259342C4BF9B1AED180026E8
S1132E201A34B5421AD1002008E001235246414623
S1132E303846C847013003D14FF0FF30BDE8F08772
S1132E400135C6E7E1185A1C302081F843002244BA
S1132E5094F8451082F843100233C7E70123224651
S1132E6041463846C8470130E6D00136D9E78842A2
S1132E7010B501EB020402D98442234607D8431E4D
S1132E80A14208D011F8012B03F8012FF8E70244FE
S1132E9001468A4200D110BD13F8014D02F8014DDC
S1132EA0F7E70A44914200F1FF3300D1704710B5AF
S1132EB011F8014B03F8014F9142F9D110BD2DE9EE
S1132EC0F041804615460C4621B9BDE8F041114653
S1132ED0FFF79CBB2AB9FFF72DFB00242046BDE871
S1132EE0F08100F01AF88542064602D8B5EB500F7F
S1132EF0F4D829464046FFF789FB07460028ECD062
S1132F00B5422A46214628BF3246FFF7CAFF21466A
S1132F104046FFF70FFB3C46E0E751F8043C181F1E
S1132F20002BBCBF0B58C018704700000000000005
S1132F30000000000000000000000000000000008D
S1132F40F8B500BFF8BC08BC9E467047F8B500BF92
S1132F50F8BC08BC9E46704700000000000000005A
S1132F60000000000000000000000000000000005D
S1132F70000000000000000000000000000000004D
S1132F804445543A256C752C25752C25752C2575CE
S1132F902C25750D0A004E4F443A256C750D0A0018
S1132FA04552523A53454E534F525F4641554C5445
S1132FB00D0A0049443F0052414441522D53494DAA
S1132FC02D45464D33322D3030310D0A0053543FD8
S1132FD0004F4B0D0A0053433A0052535400000073
S1132FE0050000000000000000C201000005000010
S1132FF00010000000000000000000006C10002021
S113300049080000D12B0000E32B00007D080000DC
S1133010B9080000633A5C75736572735C62636B34
S113302031305C73696D706C69636974797374753C
S113303064696F5C73646B735C6765636B6F5F7308
S1133040646B5C706C6174666F726D5C656D6C69E9
S1133050625C696E635C656D5F6770696F2E6800A2
S11330603F0000F8C00F00FE0000FF00433A2F5558
S1133070736572732F62636B31302F53696D706C9B
S1133080696369747953747564696F2F53444B731E
S11330902F6765636B6F5F73646B2F706C6174660D
S11330A06F726D2F656D6C69622F7372632F656D1E
S11330B05F636D752E63000000028000080002004B
S11330C02000000140000400010010000806020076
S11330D0040907030105433A2F55736572732F6280
S11330E0636B31302F53696D706C69636974795304
S11330F0747564696F2F53444B732F6765636B6FEB
S11331005F73646B2F706C6174666F726D2F656D85
S11331106C69622F7372632F656D5F656D752E63C5
S113312000433A2F55736572732F62636B31302FEE
S113313053696D706C696369747953747564696FEC
S11331402F53444B732F6765636B6F5F73646B2FEF
S1133150706C6174666F726D2F656D6C69622F732C
S113316072632F656D5F6770696F2E6300003F00A7
S113317000F8C00F00FE0000FF00433A2F557365AE
S113318072732F62636B31302F53696D706C696396
S113319069747953747564696F2F53444B732F6743
S11331A065636B6F5F73646B2F706C6174666F72B1
S11331B06D2F656D6C69622F7372632F656D5F721D
S11331C07463632E6300433A2F55736572732F62E1
S11331D0636B31302F53696D706C69636974795313
S11331E0747564696F2F53444B732F6765636B6FFA
S11331F05F73646B2F706C6174666F726D2F656D95
S11332006C69622F7372632F656D5F737973746574
S11332106D2E6300433A2F55736572732F62636B8F
S113322031302F53696D706C6963697479537475A7
S113323064696F2F53444B732F6765636B6F5F73C0
S1133240646B2F706C6174666F726D2F656D6C6941
S1133250622F7372632F656D5F74696D65722E637F
S113326000433A2F55736572732F62636B31302FAD
S113327053696D706C696369747953747564696FAB
S11332802F53444B732F6765636B6F5F73646B2FAE
S1133290706C6174666F726D2F656D6C69622F73EB
S11332A072632F656D5F75736172742E6300000124
S11332B0080705000A00C8002000FFFF0000010005
S11332C00000A00055010A200706020A04070000B6
S11332D000020700433A2F55736572732F62636BC4
S11332E031302F53696D706C6963697479537475E7
S11332F064696F2F53444B732F6765636B6F5F7300
S1133300646B2F706C6174666F726D2F7365727667
S11333106963652F736C65657074696D65722F736D
S113332072632F736C5F736C65657074696D65721D
S11333302E630001000000050000000002000003ED
S1133340000000232D302B2000686C4C006566675C
S11333504546470030313233343536373839414207
S113336043444546003031323334353637383961D9
S10B337062636465660000005D
S10B337884CEFF7F0100000078
S10F33808C330000001000201E00000030
S113338CC0EA2101C0EA210100800000005A620257
S113339C20120020C0EA21011C10002000000000B3
S11333ACA41000200C110020741100200000000057
S11333BC00000000000000000000000000000000FD
S11333CC00000000000000000000000000000000ED
S11333DC00000000000000000000000000000000DD
S11333EC0000000000000000FFFFFFFF05040101C6
S10B33FCD9010000B101000039
S90306599D
